:100000000C945D000C9485000C9485000C94850084
:100010000C9485000C9485000C9485000C9485004C
:100020000C9485000C9485000C9485000C94A70317
:100030000C9485000C9485000C9485000C9485002C
:100040000C9405030C9485000C9475030C944F03D9
:100050000C9485000C9485000C9485000C9485000C
:100060000C9485000C94850048656C6C6F2066725A
:100070006F6D2041726475696E6F21000000000091
:10008000250028002B0000000000240027002A0083
:10009000040404040404040402020202020203032E
:1000A0000303030301020408102040800102040836
:1000B00010200102040810200B0411241FBECFEFF2
:1000C000D8E0DEBFCDBF23E0ACE1B1E001C01D92BE
:1000D000A233B207E1F711E0A0E0B1E0E6E0F3E11E
:1000E00002C005900D92AC31B107D9F710E0CDE513
:1000F000D0E004C02197FE010E945608CC35D107FC
:10010000C9F70E9481040C9481090C940000CF92DD
:10011000DF92EF92FF92CF93C82F70E090E080E0E3
:100120000E944F0620E030E04FE753E40E94B507FD
:100130006B017C016091290370E090E080E00E94F7
:100140004F069B01AC01C701B6010E948A0620E060
:1001500030E040E05FE30E9449070E9427085C2FDF
:10016000569556955695C77091E001C0990FCA955E
:10017000EAF730E020E070E080912903821713064F
:10018000D1F0CCF0D901859FA00DB11D1124E091D3
:100190002A03F0912B03EA0FFB1F408181E0261711
:1001A00037070CF080E0819584278923842780839A
:1001B0002F5F3F4FE1CFCF91FF90EF90DF90CF9037
:1001C000089580FF4FC05A9A2BB138E023272BB9EE
:1001D0009BB193279BB981FF47C05A9A2BB138E056
:1001E00023272BB99BB193279BB982FF3FC05A9A13
:1001F0002BB138E023272BB99BB193279BB983FF01
:1002000037C05A9A2BB138E023272BB99BB19327DB
:100210009BB984FF2FC05A9A2BB138E023272BB902
:100220009BB193279BB985FF27C05A9A2BB138E021
:1002300023272BB99BB193279BB986FF1FC05A9ADE
:100240002BB138E023272BB99BB193279BB987FFAC
:1002500017C05A9A9BB128E092279BB98BB182278D
:100260008BB908955A98B0CF5A98B8CF5A98C0CF42
:100270005A98C8CF5A98D0CF5A98D8CF5A98E0CF2A
:100280005A98E8CF90E0FC01EC55FF4F249180573D
:100290009F4FFC018491882399F090E0880F991F6B
:1002A000FC01EA57FF4FA591B491FC01E458FF4FC0
:1002B000859194918FB7F894EC91E22BEC938FBFDA
:1002C00008952FB7F894609185027091860280910D
:1002D0008702909188022FBF0895AF92BF92CF926C
:1002E000DF92EF92FF920F931F93CF93DF936C01F6
:1002F0007B018B01040F151FEB015E01AE18BF08D7
:10030000C017D10759F06991D601ED91FC91019088
:10031000F081E02DC6010995892B79F7C501DF91A0
:10032000CF911F910F91FF90EF90DF90CF90BF90F2
:10033000AF900895FC01538D448D252F30E0842F1C
:1003400090E0821B930B541710F0CF9608950197FD
:100350000895FC01918D828D981761F0A28DAE0FEA
:10036000BF2FB11D5D968C91928D9F5F9F73928F71
:1003700090E008958FEF9FEF08950F931F930E94D1
:100380006101609391027093920280939302909323
:10039000940289E892E00E94A90197FF1DC00E9483
:1003A000610100919102109192022091930230918B
:1003B0009402601B710B820B930B00918D021091C4
:1003C0008E0220918F023091900260177107820790
:1003D0009307F8F28FEF9FEF1F910F910895FC01A3
:1003E000918D828D981731F0828DE80FF11D858DEA
:1003F00090E008958FEF9FEF0895FC01918D228D7D
:10040000892F90E0805C9F4F821B91098F73992701
:10041000089589E892E00E94FD0121E0892B09F40A
:1004200020E0822F089580E090E0892B29F00E943F
:10043000090281110C9400000895FC01A48DA80FFD
:10044000B92FB11DA35ABF4F2C91848D90E0019616
:100450008F739927848FA689B7892C93A089B18936
:100460008C91837080648C93938D848D981306C0D7
:100470000288F389E02D80818F7D80830895EF923B
:10048000FF920F931F93CF93DF93EC0181E0888F4E
:100490009B8D8C8D98131AC0E889F989808185FF1E
:1004A00015C09FB7F894EE89FF896083E889F989C0
:1004B00080818370806480839FBF81E090E0DF91C2
:1004C000CF911F910F91FF90EF900895F62E0B8D15
:1004D00010E00F5F1F4F0F731127E02E8C8D8E11D0
:1004E0000CC00FB607FCFACFE889F989808185FF37
:1004F000F5CFCE010E941D02F1CFEB8DEC0FFD2F49
:10050000F11DE35AFF4FF0829FB7F8940B8FEA89F1
:10051000FB8980818062CFCFCF93DF93EC01888D00
:100520008823B9F0AA89BB89E889F9898C9185FD6E
:1005300003C0808186FD0DC00FB607FCF7CF8C91FC
:1005400085FFF2CF808185FFEDCFCE010E941D0295
:10055000E9CFDF91CF910895CF92DF92EF92FF9292
:100560000F931F93CF930E94610100911C01109182
:100570001D0120911E0130911F016B017C01C01AE9
:10058000D10AE20AF30A970186010A311105210511
:1005900031059CF1653F21E07207810591056CF101
:1005A00060931C0170931D0180931E0190931F01A5
:1005B0006B017C01E4EFCE1AE1E0DE0AE108F1080C
:1005C00000E211E0C7E5F80181919191A191B1910B
:1005D0008F010097A105B10571F08C159D05AE0541
:1005E000BF054CF4349710821182128213826FEF90
:1005F0008C2F0E948700C15030F7CF911F910F912F
:10060000FF90EF90DF90CF9008951F920F920FB65A
:100610000F9211242F933F938F939F93AF93BF9388
:100620008091850290918602A0918702B091880204
:100630003091840223E0230F2D3758F50196A11D38
:10064000B11D209384028093850290938602A0932B
:100650008702B09388028091800290918102A091DC
:100660008202B09183020196A11DB11D8093800288
:1006700090938102A0938202B0938302BF91AF91C5
:100680009F918F913F912F910F900FBE0F901F90D0
:10069000189526E8230F0296A11DB11DD2CF1F92F7
:1006A0000F920FB60F9211242F933F934F935F93A6
:1006B0006F937F938F939F93AF93BF93EF93FF932A
:1006C00089E892E00E941D02FF91EF91BF91AF91E6
:1006D0009F918F917F916F915F914F913F912F915A
:1006E0000F900FBE0F901F9018951F920F920FB68C
:1006F0000F9211242F938F939F93EF93FF93E09189
:100700009902F0919A028081E0919F02F091A002FB
:1007100082FD1BC090818091A2028F5F8F73209118
:10072000A302821741F0E091A202F0E0E757FD4FEB
:10073000958F8093A202FF91EF919F918F912F91BE
:100740000F900FBE0F901F9018958081F4CF1F92CD
:100750000F920FB60F9211240F931F932F933F9375
:100760004F935F936F937F938F939F93AF93BF93B9
:10077000CF93DF93EF93FF93F894C0912603D0912A
:1007800027038D81882369F1EC818A819B81E80FA1
:10079000F92FF11D80810E94E1009BB120E1922799
:1007A0009BB98BB182278BB98C818F5F8C839981A8
:1007B000891301C01C827894FF91EF91DF91CF9152
:1007C000BF91AF919F918F917F916F915F914F9169
:1007D0003F912F911F910F910F900FBE0F901F907F
:1007E000189508810150110B0F3F1007B1F2EC81F1
:1007F0008981809F9001819F300D11248A819B8186
:10080000820F931FE80FF92FF11D80810E94E100F4
:1008100001501109E9CF10928C0210928B0288EEE0
:1008200093E0A0E0B0E080938D0290938E02A093BD
:100830008F02B09390028AE091E090938A028093B5
:10084000890285EC90E0909396028093950284EC67
:1008500090E0909398028093970280EC90E09093C0
:100860009A028093990281EC90E090939C0280938D
:100870009B0282EC90E090939E0280939D0286EC16
:1008800090E09093A00280939F021092A202109297
:10089000A3021092A4021092A50210922C038BE0E6
:1008A0008093280380E48093290380EC92E00E94E7
:1008B0005C0890932B0380932A0390E080E09C01D6
:1008C00050E040E0609128036417150669F064F079
:1008D000E0912A03F0912B03E20FF31F10824F5F88
:1008E0005F4F205C3F4FEECF01968034910539F782
:1008F00088E293E0909327038093260310922D03C0
:100900000895CF93DF931F92CDB7DEB7789484B567
:10091000826084BD84B5816084BD85B5826085BDFB
:1009200085B5816085BD80916E00816080936E0089
:10093000109281008091810082608093810080917B
:10094000810081608093810080918000816080932C
:1009500080008091B10084608093B1008091B000EC
:1009600081608093B00080917A00846080937A00E7
:1009700080917A00826080937A0080917A00816011
:1009800080937A0080917A00806880937A00109238
:10099000C100E0919902F0919A0282E08083E09197
:1009A0009502F09196021082E0919702F0919802E0
:1009B00080E180831092A102E0919D02F0919E025D
:1009C00086E08083E0919B02F0919C0280818061AF
:1009D0008083E0919B02F0919C02808188608083FB
:1009E000E0919B02F0919C02808180688083E0917D
:1009F0009B02F0919C0280818F7D808382E00E9427
:100A0000420183E00E94420184E00E944201F89486
:100A10001092800010928100109285001092840044
:100A200083EC99E090938900809388008091810005
:100A30008160809381008091810088608093810033
:100A400080916F00826080936F007894E0E2F1E023
:100A5000119211921192119282E0E038F807C1F7D9
:100A600008E610E0F8016491662341F089E892E01D
:100A70000E943F020F5F1F4F892BA1F742E050E019
:100A800068E171E089E892E00E946D0189E892E0F6
:100A90000E94FD0102970CF4F1C089E892E00E94E7
:100AA000A9018E3409F05CC06DB67EB689E892E08B
:100AB0000E94A9017C01FF245701AA0CBB1C8DB721
:100AC0009EB78A199B090FB6F8949EBF0FBE8DBFC3
:100AD0000DB71EB70F5F1F4F4801D12CC12CAC14AE
:100AE000BD0459F00E94BD0197FD07C0F401819338
:100AF0004F01FFEFCF1ADF0AF2CFAC14BD0409F0AB
:100B00009DC0B12CA12CEA14FB0409F497C0F80194
:100B1000908081808FEF880DF4E09F9E600111240A
:100B20008E3FB0F40E946101F601E05EFE4F6083EB
:100B300071838283938387E5891520F0682D891955
:100B40000E9487009FEFA91AB90A0E5F1F4FDBCFE3
:100B5000F601E05EFE4F1082118212821382EBCF0B
:100B6000823409F073C06DB67EB689E892E00E94C7
:100B7000A9016C01DD247601EE0CFF1CEC0CFD1CC0
:100B8000EDB7FEB7EE19FF090FB6F894FEBF0FBE22
:100B9000EDBF0DB71EB70F5F1F4F4801B12CA12C41
:100BA000EA14FB0459F00E94BD0197FD07C0F4014F
:100BB00081934F01FFEFAF1ABF0AF2CFEA14FB0493
:100BC000E9F5B12CA12CCA14DB04C1F1F801408075
:100BD00031802280912C812C512CFFEFF20DF98372
:100BE000841495042CF587E58315A8F094E0399ECC
:100BF00070011124E981EE3F98F40E946101F70130
:100C0000E05EFE4F6083718382839383622D87E56C
:100C100083190E948700FFEF8F1A9F0A3394E0CF59
:100C2000F701E05EFE4F1082118212821382EECF36
:100C30008FEFA81AB80A0D5F1F4FC5CF0FB6F894F3
:100C40007EBE0FBE6DBE0E94AC0220CF863421F066
:100C5000833511F08035B9F780E2E82E81E0F82E77
:100C600017E560E0812F0E948700F7011192119231
:100C7000119211927F011150A0F7E5CF0E94AC02B2
:100C800080E090E0892B09F401CF0E9409028823BB
:100C900009F4FCCE0E940000F9CEE89409C097FB4D
:100CA0003EF490958095709561957F4F8F4F9F4F43
:100CB0009923A9F0F92F96E9BB279395F695879587
:100CC00077956795B795F111F8CFFAF4BB0F11F44A
:100CD00060FF1BC06F5F7F4F8F4F9F4F16C08823F1
:100CE00011F096E911C0772321F09EE8872F762F27
:100CF00005C0662371F096E8862F70E060E02AF068
:100D00009A95660F771F881FDAF7880F9695879553
:100D100097F908950E949D060C940E070E94000703
:100D200038F00E94070720F0952311F00C94F70685
:100D30000C94FD0611240C9442070E941F0770F3C7
:100D4000959FC1F3950F50E0551F629FF001729F70
:100D5000BB27F00DB11D639FAA27F00DB11DAA1F7F
:100D6000649F6627B00DA11D661F829F2227B00DCC
:100D7000A11D621F739FB00DA11D621F839FA00D57
:100D8000611D221F749F3327A00D611D231F849FA7
:100D9000600D211D822F762F6A2F11249F575040FE
:100DA0009AF0F1F088234AF0EE0FFF1FBB1F661F79
:100DB000771F881F91505040A9F79E3F510580F042
:100DC0000C94F7060C9442075F3FE4F3983ED4F38B
:100DD000869577956795B795F795E7959F5FC1F7E6
:100DE000FE2B880F911D9695879597F9089597F991
:100DF0009F6780E870E060E008959FEF80EC0895C1
:100E000000240A94161617061806090608950024E9
:100E10000A9412161306140605060895092E039463
:100E2000000C11F4882352F0BB0F40F4BF2B11F4D7
:100E300060FF04C06F5F7F4F8F4F9F4F089557FD36
:100E40009058440F551F59F05F3F71F04795880F38
:100E500097FB991F61F09F3F79F0879508951216CF
:100E600013061406551FF2CF4695F1DF08C016167B
:100E700017061806991FF1CF86957105610508942C
:100E80000895E894BB2766277727CB0197F9089543
:100E90005058BB27AA270E9460070C940E070E9497
:100EA000000738F00E94070720F039F49F3F19F43B
:100EB00026F40C94FD060EF4E095E7FB0C94F7067F
:100EC000E92F0E941F0758F3BA17620773078407B8
:100ED000950720F079F4A6F50C9441070EF4E095FF
:100EE0000B2EBA2FA02D0B01B90190010C01CA01E4
:100EF000A0011124FF27591B99F0593F50F4503E8F
:100F000068F11A16F040A22F232F342F4427585F80
:100F1000F3CF469537952795A795F0405395C9F798
:100F20007EF41F16BA0B620B730B840BBAF0915050
:100F3000A1F0FF0FBB1F661F771F881FC2F70EC0EF
:100F4000BA0F621F731F841F48F4879577956795C2
:100F5000B795F7959E3F08F0B0CF9395880F08F0AE
:100F60009927EE0F9795879508950E94C9070C94CD
:100F70000E070E94070758F00E94000740F029F46E
:100F80005F3F29F00C94F70651110C9442070C9422
:100F9000FD060E941F0768F39923B1F3552391F3CF
:100FA000951B550BBB27AA2762177307840738F0D8
:100FB0009F5F5F4F220F331F441FAA1FA9F335D035
:100FC0000E2E3AF0E0E832D091505040E695001CE9
:100FD000CAF72BD0FE2F29D0660F771F881FBB1FA3
:100FE000261737074807AB07B0E809F0BB0B802D81
:100FF000BF01FF2793585F4F3AF09E3F510578F0AD
:101000000C94F7060C9442075F3FE4F3983ED4F348
:10101000869577956795B795F7959F5FC9F7880F80
:10102000911D9695879597F90895E1E0660F771FD2
:10103000881FBB1F621773078407BA0720F0621B63
:10104000730B840BBA0BEE1F88F7E09508950E948E
:10105000270788F09F5798F0B92F9927B751B0F01C
:10106000E1F0660F771F881F991F1AF0BA95C9F72C
:1010700014C0B13091F00E944107B1E008950C9482
:101080004107672F782F8827B85F39F0B93FCCF335
:10109000869577956795B395D9F73EF490958095A9
:1010A000709561957F4F8F4F9F4F0895EE0FFF1FF3
:1010B0000590F491E02D09940F931F93CF93DF9344
:1010C0008230910510F482E090E0E0913003F091DD
:1010D000310330E020E0B0E0A0E0309799F4211532
:1010E000310509F44AC0281B390B24303105D8F5E5
:1010F0008A819B816115710589F1FB01938382834C
:10110000FE0111C0408151810281138148175907A6
:10111000E0F04817590799F4109761F012960C9374
:10112000129713961C933296CF01DF91CF911F91A6
:101130000F9108950093300310933103F4CF2115DC
:10114000310551F04217530738F0A901DB019A012C
:10115000BD01DF01F801C1CFEF01F9CF9093310359
:1011600080933003CDCFFE01E20FF31F8193919363
:101170002250310939832883D7CF20912E03309113
:101180002F03232B41F4209102013091030130936E
:101190002F0320932E03209100013091010121158E
:1011A000310541F42DB73EB740910401509105013E
:1011B000241B350BE0912E03F0912F03E217F30768
:1011C000A0F42E1B3F0B2817390778F0AC014E5FB7
:1011D0005F4F2417350748F04E0F5F1F50932F03C2
:1011E00040932E03819391939FCFF0E0E0E09CCF5A
:1011F000CF93DF930097E9F0FC01329713821282BC
:10120000A0913003B0913103ED0130E020E0109760
:10121000A1F420813181820F931F20912E03309100
:101220002F032817390709F061C0F0932F03E093CB
:101230002E03DF91CF910895EA01CE17DF07E8F57D
:101240004A815B819E0141155105B1F7E901FB839C
:10125000EA8349915991C40FD51FEC17FD0761F43A
:10126000808191810296840F951FE901998388837B
:10127000828193819B838A83F0E0E0E012968D91D6
:101280009C9113970097B9F52D913C911197CD0141
:101290000296820F931F20912E0330912F0328175F
:1012A000390739F6309751F5109231031092300317
:1012B000B0932F03A0932E03BCCFD383C28340816E
:1012C0005181840F951FC817D90761F44E5F5F4F96
:1012D00088819981480F591F518340838A819B815E
:1012E000938382832115310509F0B0CFF093310348
:1012F000E09330039ECFFD01DC01C0CF1382128248
:06130000D7CFF894FFCFE7
:10130600000032038000000000003F026D019A01D8
:0C1316008C02FD01A901EF010D0A00008E
:00000001FF
